:1000000019C033C032C031C030C02FC02EC02DC087
:100010002CC02BC02AC029C028C027C026C025C09C
:1000200024C023C022C021C020C01FC01EC01DC0CC
:100030001CC01BC011241FBECFEFD4E0DEBFCDBF5C
:1000400011E0A0E0B1E0ECE3F1E002C005900D9218
:10005000A030B107D9F711E0A0E0B1E001C01D92D6
:10006000A030B107E1F754D067C0CACF80E48093D5
:10007000800089E08093810080E880938200089569
:1000800080E88093800099E09093810080938200C3
:10009000089510928000109281000895EF92FF92CF
:1000A0000F931F93CF93DF93EC01D0632EE0E22EEA
:1000B000F12C00E010E2C8018C239D23009749F049
:1000C000DFDF83EF96E00197F1F700C00000CEDF9D
:1000D00008C0CCDF83EF96E00197F1F700C0000085
:1000E000CFDF83EF96E00197F1F700C0000016958F
:1000F00007950894E108F108E114F104E1F6C0DF86
:10010000C8DFDF91CF911F910F91FF90EF9008957D
:1001100082E084B91092890084E88093880081E0AD
:1001200090E0BCDF8FE39CE2A2E081509040A040D1
:0C013000E1F700C00000F3CFF894FFCF0F
:00000001FF
