:1000000019C020C01FC01EC01DC01CC01BC01AC00C
:1000100019C018C017C016C015C014C013C012C034
:1000200011C010C00FC00EC00DC00CC00BC00AC064
:1000300009C008C011241FBECFEFD4E0DEBFCDBF82
:100040005ED073C0DDCF80E48093800089E0809330
:10005000810080E880938200089590E8909380006A
:1000600089E080938100909382000895109280002F
:100070001092810008951F93DC01B06340E050E2CC
:1000800020E030E010E4F9E0E0E864EF76E0CA0157
:100090008A239B23892B61F0E0938000F0938100F9
:1000A000E0938200CB010197F1F7109380000BC021
:1000B00010938000F0938100E0938200CB010197C0
:1000C000F1F7E0938000F0938100E0938200CB0190
:1000D0000197F1F7569547952F5F3F4F2E30310529
:1000E000B1F690E89093800089E08093810090932E
:1000F000820010928000109281001F910895CF938A
:10010000DF9382E084B91092890084E880938800AC
:10011000C8ECD0E08AE090E0AEDF8AE793E0FE0131
:0E0120003197F1F70197D9F7F5CFF894FFCF9B
:00000001FF
