:1000000012C021C020C01FC01EC01DC01CC01BC00C
:100010001AC01FC018C017C016C015C014C013C026
:1000200012C011C010C011241FBECFE5D4E0DEBF46
:10003000CDBF10E0A0E6B0E001C01D92A336B1072D
:10004000E1F78DD0A1C0DCCF81E083BF89BF789478
:1000500008951F920F920FB60F9211248F938091E3
:1000600060008F5F80936000809162008F5F80935B
:10007000620080916200882329F4809161008F5F83
:10008000809361008F910F900FBE0F901F90189575
:100090001092610007C080916100803108F04FC06C
:1000A000839902C010926000809160008E3698F3B0
:1000B00005C080916100803108F041C08399F9CF7B
:1000C0001092600004C0809160008332C0F5839B71
:1000D000FACF8091600010926000982F9695592F6A
:1000E000580F482F440F490F04C0809160005817E3
:1000F00030F18399FACF1092600090E020E030E078
:10010000809160008517E0F3839B05C00DC080914E
:1001100060004817A0F0839BFACF220F331F09C05D
:1001200080916000481758F08399FACF220F331F4F
:100130002160109260009F5F9C3011F702C02FEF8A
:100140003FEFC901089510BC83E389B988E18AB9FA
:100150008EE880BD08955F9BFECF8CB108951F93FC
:100160008A9A8FEF84BB81E083BF89BF789410BCEB
:1001700083E389B988E18AB98EE880BD1FEF88DF03
:0C0180000A97E9F715BBFBCFF894FFCFFE
:00000001FF
