:1000000012C021C020C01FC01EC01DC01CC01BC00C
:100010001AC01FC018C017C016C015C014C013C026
:1000200012C011C010C011241FBECFE5D4E0DEBF46
:10003000CDBF10E0A0E6B0E001C01D92A336B1072D
:10004000E1F782D091C0DCCF81E083BF89BF789493
:1000500008951F920F920FB60F9211248F938091E3
:1000600060008F5F80936000809162008F5F80935B
:10007000620080916200882329F4809161008F5F83
:10008000809361008F910F900FBE0F901F90189575
:100090001092610007C080916100803108F050C06B
:1000A000839902C010926000809160008E3698F3B0
:1000B00005C080916100803108F042C08399F9CF7A
:1000C0001092600004C0809160008332C8F5839B69
:1000D000FACF8091600010926000982F9695592F6A
:1000E000580F482F440F490F04C0809160005817E3
:1000F00038F18399FACF1092600090E020E030E070
:10010000809160008517E0F3839B05C00DC080914E
:1001100060004817A8F0839BFACF220F331F09C055
:1001200080916000481760F08399FACF220F331F47
:100130002160109260009F5F9C3011F7377F02C0F2
:100140002FEF3FEFC90108951F9381B3866081BBF4
:100150008FEF84BB81E083BF89BF78941FEF98DF66
:0C0160000A97E9F715BBFBCFF894FFCF1E
:00000001FF
