:1000000012C02CC02BC02AC029C028C027C026C0BF
:1000100025C02AC023C022C021C020C01FC01EC0CE
:100020001DC01CC01BC011241FBECFE5D4E0DEBF25
:10003000CDBF10E0A0E6B0E0E6EEF1E002C0059032
:100040000D92A036B107D9F710E0A0E6B0E001C0EC
:100050001D92A336B107E1F793D0C3C0D1CF81E0A1
:1000600083BF89BF789408951F920F920FB60F92A5
:1000700011248F93809161008F5F80936100809144
:1000800062008F5F8093620080916200882329F470
:10009000809160008F5F809360008F910F900FBE02
:1000A0000F901F9018951092600007C0809160001B
:1000B000803108F04EC0839902C010926100809197
:1000C00061008E3698F305C080916000803108F0A1
:1000D00040C08399F9CF1092610004C08091610003
:1000E0008332B8F5839BFACF2091610010926100B2
:1000F000822F8695482F420F220F280F04C080912F
:100100006100481730F18399FACF109261003CE00A
:1001100080E090E0509161005417E0F3839B05C0AC
:100120000DC0509161002517A0F0839BFACF880F76
:10013000991F09C050916100251770F08399FACF7B
:10014000880F991F816010926100315019F7977FD5
:1001500008958FEF9FEF08958FEF9FEF089589B96E
:1001600090BD86E880BD88E18AB90895929A5D9B2A
:10017000FECF8CB9089592985F9BFECF8CB1089505
:1001800081B3866081BB88988FEF84BB68DF83E38F
:1001900090E0E5DF10E00FEF86DFEC018FEFCF3F5F
:1001A000D80791F087E4E2DF8AE3E0DF8C2F805DFF
:1001B000DDDF8DE0DBDF8AE0D9DF8FEC97E00197B0
:1001C000F1F700C0000005BB1A3049F48DE2CEDF24
:1001D0008DE2CCDF8AE0CADF8DE0C8DF10E01F5F70
:0601E000DBCFF894FFCF15
:00000001FF
